S01000006C6561726E696E672E73726563C4
S11300000C942A000C947D040C94A6040C94CF0444
S11300100C9447000C94EE050C94C5050C947305E0
S11300200C949C050C944A050C9447000C942105EF
S11300300C94F8040C9440060C9447000C94170696
S11300400C9447000C9447000C9447000C94470010
S11300500C94470011241FBECFE5D8E0DEBFCDBF0E
S113006010E0A0E6B0E0E8E5FDE002C005900D92E6
S1130070AC39B107D9F720E0ACE9B0E001C01D927A
S1130080A43BB207E1F70E94FA010C94AA060C946F
S11300900000CF93C5E01EC060E080E00E94CC0168
S11300A080E890E00E94BF016C2F0C2E000C770BAF
S11300B0880B990B0E9456018FE890E00E94BF01C3
S11300C02FEF89E698E1215080409040E1F700C08D
S11300D00000C150CC2304F70E945201CF9108952F
S11300E0CF93C82F60E081E00E947C036C2F661FD1
S11300F06627661F86E00E947C03C6FB662760F9BC
S113010085E00E947C03C5FB662760F984E00E94B9
S11301107C03C4FB662760F983E00E947C0361E0F2
S113012082E00E947C038FEC97E00197F1F700C016
S1130130000060E082E00E947C038FEC97E001976E
S1130140F1F700C00000C3FB662760F986E00E9457
S11301507C03C2FB662760F985E00E947C03C1FB37
S1130160662760F984E00E947C036C2F617083E051
S11301700E947C0361E082E00E947C038FEC97E0A4
S11301800197F1F700C0000060E082E00E947C0368
S11301908FEC97E00197F1F700C00000CF9108952C
S11301A0CF93C82F61E081E00E947C036C2F661F0F
S11301B06627661F86E00E947C03C6FB662760F9FB
S11301C085E00E947C03C5FB662760F984E00E94F9
S11301D07C03C4FB662760F983E00E947C0361E032
S11301E082E00E947C038FEC97E00197F1F700C056
S11301F0000060E082E00E947C038FEC97E00197AE
S1130200F1F700C00000C3FB662760F986E00E9496
S11302107C03C2FB662760F985E00E947C03C1FB76
S1130220662760F984E00E947C036C2F617083E090
S11302300E947C0361E082E00E947C038FEC97E0E3
S11302400197F1F700C0000060E082E00E947C03A7
S11302508FEC97E00197F1F700C00000CF9108956B
S11302602FE788E391E0215080409040E1F700C0FF
S1130270000082E00E94700088E20E9470008CE01E
S11302800E94700081E00E9470008FEC97E001975B
S1130290F1F700C0000086E00E94700008950E94FB
S11302A0D000089581E00E9470000895CF92DF92FB
S11302B0EF92FF920F931F93CF93DF93CDB7DEB7E7
S11302C060970FB6F894DEBF0FBECDBF6B017C0103
S11302D0672B682B692B19F480E30E944F01FF20E0
S11302E054F4F094E094D094C094C11CD11CE11C4B
S11302F0F11C01E001C000E010E015C0C701B60127
S11303002AE030E040E050E00E948B06E1E0F0E0BB
S1130310EC0FFD1FE10FF11D605D6083C22ED32E33
S1130320E42EF52E1F5FC114D104E104F10431F76A
S1130330013019F48DE20E944F01F12E0FC0EF2D10
S11303400F2C000CFF0B319781E090E08C0F9D1F68
S1130350E80FF91F80810E944F01FA941F147CF367
S113036060960FB6F894DEBF0FBECDBFDF91CF917C
S11303701F910F91FF90EF90DF90CF900895CF934E
S1130380DF93EC0103C00E944F0121968881811103
S1130390FACFDF91CF910895811105C080E8860FCF
S11303A00E9470000895813021F480EC860F0E9431
S11303B07000089588E00E9438032FEF83ED90E3E6
S11303C0215080409040E1F700C0000088E00E9486
S11303D03803089589E00E9438032FEF83ED90E3FA
S11303E0215080409040E1F700C0000089E00E9465
S11303F0380308950E9428030E943001789463E032
S113040080E00E94F1036AED71E080E00E946804DC
S113041063E081E00E94F1036AEE71E081E00E94F2
S1130420680486E990E00E94BF010E944900FFCF62
S1130430613031F008F4B4C0623009F459C0089551
S1130440982F9695969596959130C9F028F092300C
S113045049F19330D1F108954BB3877021E030E036
S1130460B90102C0660F771F8A95E2F7CB01809528
S1130470942F98239BBB9AB389238ABB089548B3CE
S1130480877021E030E0B90102C0660F771F8A95BA
S1130490E2F7CB018095942F982398BB97B38923D7
S11304A087BB089545B3877021E030E0B90102C0ED
S11304B0660F771F8A95E2F7CB018095942F9823D6
S11304C095BB94B3892384BB089542B3877021E01C
S11304D030E0B90102C0660F771F8A95E2F7CB01BD
S11304E08095942F982392BB91B3892381BB08955F
S11304F0982F9695969596959130C9F028F092305C
S113050049F19330D1F108954AB3877021E030E086
S1130510B90102C0660F771F8A95E2F7CB01962FC7
S1130520909594239ABB9BB3892B8BBB089547B3B7
S1130530877021E030E0B90102C0660F771F8A9509
S1130540E2F7CB01962F9095942397BB98B3892B10
S113055088BB089544B3877021E030E0B90102C03C
S1130560660F771F8A95E2F7CB01962F9095942317
S113057094BB95B3892B85BB089541B3877021E063
S113058030E0B90102C0660F771F8A95E2F7CB010C
S1130590962F9095942391BB92B3892B82BB089597
S11305A0982F9695969596959130C9F028F09230AB
S11305B049F19330D1F108954AB3877021E030E0D6
S11305C0B90102C0660F771F8A95E2F7CB01942F19
S11305D0982B9ABB9BB3809589238BBB089547B313
S11305E0877021E030E0B90102C0660F771F8A9559
S11305F0E2F7CB01942F982B97BB98B3809589236E
S113060088BB089544B3877021E030E0B90102C08B
S1130610660F771F8A95E2F7CB01942F982B94BB32
S113062095B38095892385BB089541B3877021E0F4
S113063030E0B90102C0660F771F8A95E2F7CB015B
S1130640942F982B91BB92B38095892382BB0895F4
S1130650CF93C0E009C0EC2FF0E0E05AFF4F608177
S11306608C2F0E941802CF5FC032A8F3CF91089557
S1130670982F9695969596959130A1F028F0923002
S1130680F9F0933059F108954BB3877021E030E0CD
S1130690B90102C0660F771F8A95E2F7CB01842760
S11306A08BBB089548B3877021E030E0B90102C0E4
S11306B0660F771F8A95E2F7CB01842788BB0895DC
S11306C045B3877021E030E0B90102C0660F771F9F
S11306D08A95E2F7CB01842785BB089542B38770DE
S11306E021E030E0B90102C0660F771F8A95E2F776
S11306F0CB01842782BB0895982F9695969596955D
S1130700913009F130F09230C1F1933009F44FC0C7
S113071008959AB3877021E030E0082E02C0220FBA
S1130720331F0A94E2F7922B9ABB9BB3209529239B
S11307302BBB9BB370E002C0660F771F8A95E2F76C
S113074069276BBB089597B3877021E030E0082ECA
S113075002C0220F331F0A94E2F7922B97BB98B37F
S11307602095292328BB98B370E002C0660F771F39
S11307708A95E2F7692768BB089594B3877021E0EE
S113078030E0082E02C0220F331F0A94E2F7922BA6
S113079094BB95B32095292325BB95B370E002C083
S11307A0660F771F8A95E2F7692765BB089591B3B1
S11307B0877021E030E0082E02C0220F331F0A9414
S11307C0E2F7922B91BB92B32095292322BB92B3DB
S11307D070E002C0660F771F8A95E2F7692762BB53
S11307E00895611112C0813041F018F0823049F04F
S11307F008958BB78F7B8BBF08958BB78F778BBF93
S113080008958BB78F7D8BBF0895813041F018F028
S1130810823049F00BC09BB790649BBF07C09BB765
S113082090689BBF03C09BB790629BBF813039F532
S1130830623081F018F4613031F00895633089F04A
S11308406430B1F0089585B7877F85BF85B78B7F06
S113085085BF089585B7877F85BF85B7846085BFC9
S1130860089585B7886085BF85B78B7F85BF089558
S113087085B7886085BF85B7846085BF0895811179
S113088026C0623081F018F4613031F0089563308D
S113089089F06430B1F0089585B78D7F85BF85B741
S11308A08E7F85BF089585B78D7F85BF85B78160AD
S11308B085BF089585B7826085BF85B78E7F85BF64
S11308C0089585B7826085BF85B7816085BF089527
S11308D0813049F018F0823059F008957093A100E6
S11308E06093A000089570939F0060939E00089504
S11308F070939D0060939C0008951F920F920FB611
S11309000F9211242F933F934F935F936F937F9391
S11309108F939F93AF93BF93EF93FF93E091A000C6
S1130920F091A100309709F00995FF91EF91BF91E3
S1130930AF919F918F917F916F915F914F913F9173
S11309402F910F900FBE0F901F9018951F920F922A
S11309500FB60F9211242F933F934F935F936F938E
S11309607F938F939F93AF93BF93EF93FF93E09104
S11309709E00F0919F00309709F00995FF91EF9147
S1130980BF91AF919F918F917F916F915F914F91A3
S11309903F912F910F900FBE0F901F9018951F92AB
S11309A00F920FB60F9211242F933F934F935F939F
S11309B06F937F938F939F93AF93BF93EF93FF9323
S11309C0E0919C00F0919D00309709F00995FF910A
S11309D0EF91BF91AF919F918F917F916F915F91B3
S11309E04F913F912F910F900FBE0F901F9018952C
S11309F01F920F920FB60F9211242F933F934F9390
S1130A005F936F937F938F939F93AF93BF93EF9372
S1130A10FF93E091A200F091A300309709F00995AB
S1130A20FF91EF91BF91AF919F918F917F916F91C2
S1130A305F914F913F912F910F900FBE0F901F9098
S1130A4018951F920F920FB60F9211242F933F9374
S1130A504F935F936F937F938F939F93AF93BF93C2
S1130A60EF93FF93E091AE00F091AF00309709F05F
S1130A700995FF91EF91BF91AF919F918F917F91D4
S1130A806F915F914F913F912F910F900FBE0F90F7
S1130A901F9018951F920F920FB60F9211242F9347
S1130AA03F934F935F936F937F938F939F93AF93F2
S1130AB0BF93EF93FF93E091AC00F091AD003097BA
S1130AC009F00995FF91EF91BF91AF919F918F919B
S1130AD07F916F915F914F913F912F910F900FBE36
S1130AE00F901F9018951F920F920FB60F9211241A
S1130AF02F933F934F935F936F937F938F939F9322
S1130B00AF93BF93EF93FF93E091AA00F091AB00F2
S1130B10309709F00995FF91EF91BF91AF919F91A3
S1130B208F917F916F915F914F913F912F910F9092
S1130B300FBE0F901F9018951F920F920FB60F9231
S1130B4011242F933F934F935F936F937F938F93CE
S1130B509F93AF93BF93EF93FF93E091A800F0911D
S1130B60A900309709F00995FF91EF91BF91AF91DA
S1130B709F918F917F916F915F914F913F912F91B1
S1130B800F900FBE0F901F9018951F920F920FB6E3
S1130B900F9211242F933F934F935F936F937F93FF
S1130BA08F939F93AF93BF93EF93FF93E091A6002E
S1130BB0F091A700309709F00995FF91EF91BF914B
S1130BC0AF919F918F917F916F915F914F913F91E1
S1130BD02F910F900FBE0F901F9018951F920F9298
S1130BE00FB60F9211242F933F934F935F936F93FC
S1130BF07F938F939F93AF93BF93EF93FF93E09172
S1130C00A400F091A500309709F00995FF91EF91A8
S1130C10BF91AF919F918F917F916F915F914F9110
S1130C203F912F910F900FBE0F901F9018951F9218
S1130C300F920FB60F9211242F933F934F935F930C
S1130C406F937F938F939F93AF93BF93EF93FF9390
S1130C50E091B200F091B300309709F00995FF914B
S1130C60EF91BF91AF919F918F917F916F915F9120
S1130C704F913F912F910F900FBE0F901F90189599
S1130C801F920F920FB60F9211242F933F934F93FD
S1130C905F936F937F938F939F93AF93BF93EF93E0
S1130CA0FF93E091B000F091B100309709F00995FD
S1130CB0FF91EF91BF91AF919F918F917F916F9130
S1130CC05F914F913F912F910F900FBE0F901F9006
S1130CD01895A1E21A2EAA1BBB1BFD010DC0AA1F69
S1130CE0BB1FEE1FFF1FA217B307E407F50720F091
S1130CF0A21BB30BE40BF50B661F771F881F991F0C
S1130D001A9469F760957095809590959B01AC0154
S1130D10BD01CF010895052E97FB1EF400940E9497
S1130D20A20657FD07D00E94690607FC03D04EF4C3
S1130D300C94A20650954095309521953F4F4F4F06
S1130D405F4F089590958095709561957F4F8F4F73
S10B0D509F4F0895F894FFCFB2
S1130D580000000000000000000000000000000087
S1130D680200000000000000000002020000000071
S1130D785374617274206166746572203A2000208D
S10F0D8820202020200061686D656400BC
S9030000FC
