:100000000C942A000C9490020C94B9020C94E20215
:100010000C9447000C9401040C94D8030C948603B0
:100020000C94AF030C945D030C9447000C943403C0
:100030000C940B030C9453040C9447000C942A0466
:100040000C9447000C9447000C9447000C94470014
:100050000C94470011241FBECFE5D8E0DEBFCDBF12
:1000600010E0A0E6B0E0E0E4F9E002C005900D92F7
:10007000A038B107D9F720E0A0E8B0E001C01D9298
:10008000A839B207E1F70E94FF000C949E040C947B
:100090000000CF93C82F61E081E00E9428026C2FFE
:1000A000661F6627661F86E00E942802C6FB662739
:1000B00060F985E00E942802C5FB662760F984E0AC
:1000C0000E942802C4FB662760F983E00E94280290
:1000D00061E082E00E9428028FEC97E00197F1F73F
:1000E00000C0000060E082E00E9428028FEC97E0F0
:1000F0000197F1F700C00000C3FB662760F986E0B6
:100100000E942802C2FB662760F985E00E9428024F
:10011000C1FB662760F984E00E9428026C2F6170A1
:1001200083E00E94280261E082E00E9428028FECB6
:1001300097E00197F1F700C0000060E082E00E94C4
:1001400028028FEC97E00197F1F700C00000CF91F3
:1001500008958F929F92AF92BF92CF92DF92EF92CB
:10016000FF926B017C0120E137E240E050E00E9409
:100170007C0428EE822E23E0922EA12CB12CA50126
:1001800094010E947C0480E3820F0E944900C70111
:10019000B601A50194010E947C0434E6832E912CC3
:1001A000A12CB12CA50194010E947C0480E3820F54
:1001B0000E944900C701B601A50194010E947C0478
:1001C0004AE0842E912CA12CB12CA50194010E940F
:1001D0007C0480E3820F0E944900C701B601A5019B
:1001E00094010E947C0480E3860FFF90EF90DF90E3
:1001F000CF90BF90AF909F908F900C9449000E9439
:100200000B0180E00E94E5016EE170E080E090E08B
:100210000E94A900F9CFE0E6F0E020E081E090E064
:100220003191313031F008F488C0323009F445C0E2
:10023000C7C0422F469546954695322F37704230BB
:1002400001F1433061F1413071F06BB3AC0101C099
:10025000440F3A95EAF74095362F34233BBB3AB327
:1002600043234ABBADC068B3AC0101C0440F3A950B
:10027000EAF74095362F342338BB37B3432347BBC7
:100280009FC065B3AC0101C0440F3A95EAF74095B1
:10029000362F342335BB34B3432344BB91C062B300
:1002A000AC0101C0440F3A95EAF74095362F34234C
:1002B00032BB31B3432341BB83C0422F46954695A1
:1002C0004695322F37704230F1F0433049F14130DA
:1002D00069F06AB3AC0101C0440F3A95EAF7342FD4
:1002E000309536233ABB3BB3432B3FC067B3AC01D9
:1002F00001C0440F3A95EAF7342F3095362337BBC7
:1003000038B3432B40C064B3AC0101C0440F3A95ED
:10031000EAF7342F3095362334BB35B3432B41C035
:1003200061B3AC0101C0440F3A95EAF7342F309520
:10033000362331BB32B3432B42C0422F46954695FC
:100340004695322F3770423001F1433061F1413030
:1003500071F06AB3AC0101C0440F3A95EAF7362F49
:10036000342B3ABB3BB3409543234BBB29C067B307
:10037000AC0101C0440F3A95EAF7362F342B37BB56
:1003800038B34095432348BB1BC064B3AC0101C0E4
:10039000440F3A95EAF7362F342B34BB35B34095EA
:1003A000432345BB0DC061B3AC0101C0440F3A9576
:1003B000EAF7362F342B31BB32B34095432342BB8F
:1003C0002F5F203209F02CCF0895982F969596959F
:1003D0009695913099F028F09230F1F0933051F1E8
:1003E00008954BB321E030E0B90102C0660F771FDA
:1003F0008A95E2F7CB0184278BBB089548B38770B9
:1004000021E030E0B90102C0660F771F8A95E2F75C
:10041000CB01842788BB089545B3877021E030E085
:10042000B90102C0660F771F8A95E2F7CB018427D6
:1004300085BB089542B3877021E030E0B90102C066
:10044000660F771F8A95E2F7CB01842782BB089558
:10045000982F9695969596959130E9F030F09230D8
:1004600089F1933009F445C008959AB321E030E052
:10047000082E01C0220F0A94EAF7922B9ABB9BB375
:10048000209529232BBB9BB301C0660F8A95EAF701
:1004900069276BBB089597B3877021E030E0082E81
:1004A00001C0220F0A94EAF7922B97BB98B32095CC
:1004B000292328BB98B301C0660F8A95EAF76927FC
:1004C00068BB089594B3877021E030E0082E01C026
:1004D000220F0A94EAF7922B94BB95B32095292317
:1004E00025BB95B301C0660F8A95EAF7692765BBFE
:1004F000089591B3877021E030E0082E01C0220FEB
:100500000A94EAF7922B91BB92B32095292322BB40
:1005100092B301C0660F8A95EAF7692762BB089516
:100520001F920F920FB60F9211242F933F934F9368
:100530005F936F937F938F939F93AF93BF93EF934B
:10054000FF93E0918400F0918500309709F00995C0
:10055000FF91EF91BF91AF919F918F917F916F919B
:100560005F914F913F912F910F900FBE0F901F9071
:1005700018951F920F920FB60F9211242F933F934D
:100580004F935F936F937F938F939F93AF93BF939B
:10059000EF93FF93E0918200F0918300309709F090
:1005A0000995FF91EF91BF91AF919F918F917F91AD
:1005B0006F915F914F913F912F910F900FBE0F90D0
:1005C0001F9018951F920F920FB60F9211242F9320
:1005D0003F934F935F936F937F938F939F93AF93CB
:1005E000BF93EF93FF93E0918000F09181003097EB
:1005F00009F00995FF91EF91BF91AF919F918F9174
:100600007F916F915F914F913F912F910F900FBE0E
:100610000F901F9018951F920F920FB60F921124F2
:100620002F933F934F935F936F937F938F939F93FA
:10063000AF93BF93EF93FF93E0918600F091870013
:10064000309709F00995FF91EF91BF91AF919F917C
:100650008F917F916F915F914F913F912F910F906B
:100660000FBE0F901F9018951F920F920FB60F920A
:1006700011242F933F934F935F936F937F938F93A7
:100680009F93AF93BF93EF93FF93E0919200F0910C
:100690009300309709F00995FF91EF91BF91AF91C9
:1006A0009F918F917F916F915F914F913F912F918A
:1006B0000F900FBE0F901F9018951F920F920FB6BC
:1006C0000F9211242F933F934F935F936F937F93D8
:1006D0008F939F93AF93BF93EF93FF93E09190001D
:1006E000F0919100309709F00995FF91EF91BF913A
:1006F000AF919F918F917F916F915F914F913F91BA
:100700002F910F900FBE0F901F9018951F920F9270
:100710000FB60F9211242F933F934F935F936F93D4
:100720007F938F939F93AF93BF93EF93FF93E0914A
:100730008E00F0918F00309709F00995FF91EF91AD
:10074000BF91AF919F918F917F916F915F914F91E9
:100750003F912F910F900FBE0F901F9018951F92F1
:100760000F920FB60F9211242F933F934F935F93E5
:100770006F937F938F939F93AF93BF93EF93FF9369
:10078000E0918C00F0918D00309709F00995FF9170
:10079000EF91BF91AF919F918F917F916F915F91F9
:1007A0004F913F912F910F900FBE0F901F90189572
:1007B0001F920F920FB60F9211242F933F934F93D6
:1007C0005F936F937F938F939F93AF93BF93EF93B9
:1007D000FF93E0918A00F0918B00309709F0099522
:1007E000FF91EF91BF91AF919F918F917F916F9109
:1007F0005F914F913F912F910F900FBE0F901F90DF
:1008000018951F920F920FB60F9211242F933F93BA
:100810004F935F936F937F938F939F93AF93BF9308
:10082000EF93FF93E0918800F0918900309709F0F1
:100830000995FF91EF91BF91AF919F918F917F911A
:100840006F915F914F913F912F910F900FBE0F903D
:100850001F9018951F920F920FB60F9211242F938D
:100860003F934F935F936F937F938F939F93AF9338
:10087000BF93EF93FF93E0919600F091970030972C
:1008800009F00995FF91EF91BF91AF919F918F91E1
:100890007F916F915F914F913F912F910F900FBE7C
:1008A0000F901F9018951F920F920FB60F92112460
:1008B0002F933F934F935F936F937F938F939F9368
:1008C000AF93BF93EF93FF93E0919400F091950065
:1008D000309709F00995FF91EF91BF91AF919F91EA
:1008E0008F917F916F915F914F913F912F910F90D9
:1008F0000FBE0F901F901895A1E21A2EAA1BBB1BCA
:10090000FD010DC0AA1FBB1FEE1FFF1FA217B307DB
:10091000E407F50720F0A21BB30BE40BF50B661FF1
:10092000771F881F991F1A9469F7609570958095B5
:1009300090959B01AC01BD01CF010895F894FFCFC4
:1009400000000000000000000000000000000000A7
:100950000200000000000000000002020000000091
:00000001FF
